:1000000029C0000043C0000068C000008DC000008F
:100010003CC000003AC0000038C0000036C00000FC
:1000200034C0000032C0000051C1000028C10000EF
:100030002CC000002AC0000028C0000026C000001C
:1000400024C0000022C0000020C000001EC000002C
:100050001CC0000011241FBECFE5D8E0DEBFCDBF1D
:1000600010E0A0E6B0E0EEE1F3E002C005900D92F2
:10007000A036B107D9F720E0A0E6B0E001C01D929C
:10008000AA36B207E1F7F7D048C1BACF1F920F9254
:100090000FB60F9211242F933F934F935F936F935B
:1000A0007F938F939F93AF93BF93EF93FF93E091D1
:1000B0006000F09161000995FF91EF91BF91AF91C0
:1000C0009F918F917F916F915F914F913F912F9170
:1000D0000F900FBE0F901F9018951F920F920FB6A2
:1000E0000F9211242F933F934F935F936F937F93BE
:1000F0008F939F93AF93BF93EF93FF93E091620031
:10010000F09163000995FF91EF91BF91AF919F919D
:100110008F917F916F915F914F913F912F910F90B0
:100120000FBE0F901F9018951F920F920FB60F924F
:1001300011242F933F934F935F936F937F938F93EC
:100140009F93AF93BF93EF93FF93E0916400F0917F
:1001500065000995FF91EF91BF91AF919F918F91AC
:100160007F916F915F914F913F912F910F900FBEB3
:100170000F901F901895C19AC2989BB3282F207F8B
:100180009F70922B9BBBC39AE3ECF9E03197F1F798
:1001900000C00000C398E7EAF1E63197F1F700C02C
:1001A00000002BB3F0E18F02C0011124922F9F7049
:1001B000892B8BBBC39A83EC99E00197F1F700C0C0
:1001C0000000C398E7EAF1E63197F1F700C00000BC
:1001D00081EE94E00197F1F700C000000895C19806
:1001E000C2989BB3282F207F9F70922B9BBBC39AF2
:1001F000E3ECF9E03197F1F700C00000C398E7EABB
:10020000F1E63197F1F700C000002BB3F0E18F0267
:10021000C0011124922F9F70892B8BBBC39A83EC52
:1002200099E00197F1F700C00000C398E7EAF1E612
:100230003197F1F700C0000081EE94E00197F1F7EB
:1002400000C000000895BA9AB99ABB9A87EA91E66D
:100250000197F1F700C0000083E3C1DF82E3BFDF55
:1002600088E2BDDF8CE0BBDF81E0B9DF86E0B7DF8D
:1002700082E0B5CF0895E7DF83E47DDFFFCF1F92F3
:100280000F920FB60F9211242F933F934F935F93CA
:100290006F937F938F939F93AF93BF93EF93FF934E
:1002A000E0916800F09169000995FF91EF91BF918D
:1002B000AF919F918F917F916F915F914F913F91FE
:1002C0002F910F900FBE0F901F9018951F920F92B5
:1002D0000FB60F9211242F933F934F935F936F9319
:1002E0007F938F939F93AF93BF93EF93FF93E0918F
:1002F0006600F09167000995FF91EF91BF91AF9172
:100300009F918F917F916F915F914F913F912F912D
:0E0310000F900FBE0F901F901895F894FFCF1E
:00000001FF
